:1070000033C000005BC1000059C1000057C100003F
:1070100055C1000053C1000051C100004FC1000024
:107020004DC100004BC1000049C1000047C1000034
:1070300045C1000043C1000041C100003FC1000044
:107040003DC100003BC1000039C1000037C1000054
:1070500035C1000033C1000031C100002FC1000064
:107060002DC100002BC1000011241FBECFEFD8E0BE
:10707000DEBFCDBF12E0A0E0B1E0E0EAF6E702C07B
:1070800005900D92A63DB107D9F722E0A6EDB2E03A
:1070900001C01D92AA3DB207E1F701D0FFC2CF9314
:1070A000DF931F92CDB7DEB7112414B714BE25D1DC
:1070B0008BEB91E017D113FF40C088E18093600013
:1070C0001092600087ED91E00DD182E090E0B6D2A1
:1070D0008E3B59F588EE91E005D183E090E0AED289
:1070E0008E3B41F48BEF91E0FDD06FEF83E090E0B9
:1070F000ADD21EC06EEB83E090E0A8D284E090E0B9
:107100009DD28E3B21F46FEF84E090E09FD28EE21F
:1071100092E0E8D084E492E0E5D0A1D188E18093C8
:1071200060008EE08093600030C08FE492E0DAD09F
:1071300087E192E0D7D01FD128C012FF09C088E1B3
:10714000809360008EE08093600086E692E01CC031
:1071500011FF0DC088E792E0C5D089E892E0C2D067
:1071600088E1809360001092600079D10EC088E1C0
:10717000809360008EE08093600010FF03C088E978
:1071800092E002C086EA92E0ADD089EB92E0AAD00C
:10719000612C712C18E108E023E0F22EEE24E39438
:1071A00035E0D32E41E1C42E8AD0813479F487D0E2
:1071B0008983B0D08981823811F482E003C081389C
:1071C00019F486E088D077C083E0FCCF823411F4D4
:1071D00084E103C0853419F485E09FD06CC0853507
:1071E00059F46DD0B82E6BD02B2D30E0A901582B5F
:1071F0003A01660C771C5EC0863521F484E08DD0A0
:1072000080E0E0CF843609F036C059D058D0B82E8F
:1072100056D0A82E812C9924939451D0F4018193B7
:107220004F01BE12FACF76D0F5E4AF1201C0FFCF06
:10723000F301F7BEE89507B600FCFDCFA301A0E07F
:10724000B1E02C911296CD010197FC01808130E0D4
:10725000382BFA010901E7BEE89511244E5F5F4F14
:10726000BA12EFCFF301D7BEE89507B600FCFDCF09
:10727000C7BEE89520C0843771F421D020D0B82E45
:107280001ED048D04301F40185914F0124D0BA9417
:10729000B110F9CF10C0853739F43CD08EE11BD046
:1072A00085E919D08FE08ECF813521F410936000ED
:1072B000009360002FD080E10ED076CFA1CE8091D8
:1072C000C00087FFFCCF8091C00084FD01C0A8955D
:1072D0008091C60008959091C00095FFFCCF8093E7
:1072E000C6000895CF93DF93EC018991882311F0B4
:1072F000F2DFFBCFDF91CF91089582E08093C00051
:1073000088E18093C10086E08093C20088E080938A
:10731000C4000895D4DF84E1DECFCF93C82FCFDF40
:10732000C150E9F7CF91F6CF80918400909185000C
:1073300085389E41B8F08091D6029091D702A091F5
:10734000D802B091D9020196A11DB11D8093D60239
:107350009093D702A093D802B093D90210928500DF
:10736000109284006091D6027091D7028091D80269
:107370009091D9020895E0E6F0E088E180831082E0
:10738000EE27FF2709944F925F926F927F928F9220
:107390009F92AF92BF92CF92DF92EF92FF920F93A4
:1073A0001F93CF93DF93CDB7DEB7A097DEBFCDBFDE
:1073B0004C015B0169017A018E010F5F1F4F80E272
:1073C000F80111928A95E9F7AFDF2B013C01C40166
:1073D00089DF912C8091C00087FF1FC08091C00081
:1073E00084FD01C0A8958091C600492D50E0F801A8
:1073F000E40FF51F80834F5F5F4FF42FFF719F2EC7
:10740000B501C80131D1892BA9F468E771E0C80141
:107410002BD1892B11F080E00EC086DFDC01CB017F
:1074200084199509A609B7098C159D05AE05BF05F8
:1074300088F2F1CF81E0A096DEBFCDBFDF91CF9182
:107440001F910F91FF90EF90DF90CF90BF90AF9082
:107450009F908F907F906F905F904F900895EF92E4
:10746000FF920F931F93CF93DF93809181008560EC
:10747000809381001092850010928400C0E001E0AA
:1074800010E0C93009F4CFC0A895C43009F46EC02B
:1074900090F4C13009F442C0D0F0C23009F44CC0BD
:1074A000C33079F722E030E040E050E068EB71E073
:1074B0008EE491E049C0C63009F465C008F449C0C3
:1074C000C73009F469C0C83009F47BC0DACF85E061
:1074D00090E0B4D0EC0186E090E0B0D07C0187E091
:1074E00090E0ACD0980101C0220FEA94EAF7FE01C7
:1074F0009291922B90839881882311F0292B02C0BE
:1075000020952923288322E030E040E050E068EB1A
:1075100071E089E691E037DFC1E0B6CF22E030E0EC
:1075200040E050E06EE771E08EE591E02CDF8823CB
:1075300009F43DC0C2E03BC022E030E040E050E052
:1075400068EB71E087E591E01EDF882381F1C5E0FB
:107550002EC022E030E040E050E06BE871E083E4D0
:1075600091E011DF882319F1C4E021C022E030E06E
:1075700040E050E066E971E087E391E004DF8823B2
:10758000B1F0C6E014C022E030E040E050E068EB2B
:1075900071E08BE291E008C022E030E040E050E092
:1075A00060EA71E080E291E0EEDE8111C8E02FEF49
:1075B00089E698E1215080409040E1F700C000004A
:1075C00060CF25E030E040E050E06DEA71E080E01F
:1075D00091E0D9DE81112AC085E090E02FD0EC0146
:1075E00086E090E02BD07C0187E090E027D09801E6
:1075F00001C0220FEA94EAF7FE019291922B908348
:107600009881811102C0292B02C02095292328834B
:107610002FEF89E698E1215080409040E1F700C0CB
:107620000000C0E031CFA89580E001C081E0DF918B
:10763000CF911F910F91FF90EF900895F999FECF90
:1076400092BD81BDF89A992780B50895262FF999A2
:10765000FECF1FBA92BD81BD20BD0FB6F894FA9A35
:10766000F99A0FBE01960895FB0151915523A9F097
:10767000BF01DC014D9145174111E1F759F4CD01EE
:107680000190002049F04D9140154111C9F3FB01D3
:107690004111EFCF81E090E001970895F894FFCF7A
:1076A00041542B5443505452414E533D3131392EA5
:1076B0003134382E34322E34322C323332330D0002
:1076C00041542B584949433F0D0A0041542B584916
:1076D00049433D310D0A0041542B43474154543F27
:1076E0000D0A0041542B435245473F0D0A004154B7
:1076F0002B4353510D0A00415445300D0A004154AB
:107700002B4350494E3F0D0A0041542B54435043E4
:107710004C4F53453D300D004552524F52002B43C4
:1077200050494E3A205245414459002B4352454757
:107730003A20302C31002B43474154543A20310039
:107740002B584949433A20202020312C002B544308
:10775000505452414E533A204F4B000D0A2D2D20CC
:10776000426F6F746C6F61646572205374617274E0
:1077700073202D2D0D0A005761746368646F6720B4
:1077800052657365740D0A004F5441205369676E4A
:10779000616C20466F756E640D0A004F70746962EB
:1077A0006F6F7420417474656D70746564204265F8
:1077B000666F72650D0A005374617274696E67209A
:1077C0004170706C69636174696F6E0D0A00417479
:1077D00074656D7074696E67204F707469626F6F45
:1077E000740D0A0047534D204C6F6F700D0A004F07
:1077F0005441205369676E616C204E6F7420466F50
:10780000756E640D0A0042726F776E204F7574209A
:1078100052657365740D0A0045787465726E616C0B
:107820002052657365740D0A005374617274696E39
:1078300067204F54410D0A00506F776572205265E2
:107840007365740D0A00496E76616C69642046693F
:10785000726D776172650D0A002D2D204F7074696D
:10786000626F6F7420537461727473204E6F77204F
:067870002D2D0D0A0000A1
:040000030000700089
:00000001FF
