:1070000033C0000048C1000046C1000044C1000078
:1070100042C1000040C100003EC100003CC1000070
:107020003AC1000038C1000036C1000034C1000080
:1070300032C1000030C100002EC100002CC1000090
:107040002AC1000028C1000026C1000024C10000A0
:1070500022C1000020C100001EC100001CC10000B0
:107060001AC1000018C1000011241FBECFEFD8E0E4
:10707000DEBFCDBF12E0A0E0B1E0E2E5FDE702C077
:1070800005900D92AA3BB107D9F722E0AAEBB2E036
:1070900001C01D92AE3BB207E1F701D058C61124E2
:1070A000C4B714BE17D18CEB91E009D1C3FF31C036
:1070B00088E1809360001092600088ED91E0FFD03D
:1070C0008DEF93E03CD38E3B81F489EE91E0F7D0D5
:1070D0008CEF93E034D38E3B79F58CEF91E0EFD0D9
:1070E0006FEF8CEF93E033D303C080E592E0E7D0FD
:1070F00088E192E0E4D02CD1C0E0D0E018E108E0D3
:1071000023E0F22EEE24E39435E0D32E41E1C42EA9
:1071100047C0C2FF09C088E1809360008EE0809381
:10712000600087E692E030C0C1FF21C089E792E0AD
:10713000C6D08AE892E0C3CF6EEB8CEF93E007D322
:107140008BEF93E0FCD28E3B21F46FEF8BEF93E05B
:10715000FED28FE292E0B3D085E492E0B0D06BD162
:1071600088E1809360008EE080936000C5CF88E165
:10717000809360008EE080936000C0FF03C089E9C7
:1071800092E002C087EA92E09AD0B6CF85D0B82EBE
:10719000AED082E8B81208C082E08AD080E188D000
:1071A0007BD0813441F4F2CFE1E8BE1202C086E028
:1071B000F4CF83E0F2CF823411F484E103C085344C
:1071C00019F485E097D0EACF853541F465D0C82F12
:1071D00063D0D0E0D82BCC0FDD1F5BC0863521F407
:1071E00084E088D080E0D9CF843609F033C054D011
:1071F00053D0982E51D0882EA12CBB24B3944CD0C0
:10720000F50181935F019E12FACF71D0F5E48F12E0
:1072100001C0FFCFFE01F7BEE89507B600FCFDCF29
:10722000FE01A0E0B1E08C9111962C91119790E0B5
:10723000922B0C01E7BEE8951124329612969A1211
:10724000F2CFFE01D7BEE89507B600FCFDCFC7BE62
:10725000E895A4CF843771F41FD01ED0982E1CD08F
:1072600046D05E01F50185915F0122D09A9491107C
:10727000F9CF94CF853739F43AD08EE119D085E92A
:1072800017D08FE08ACF813521F4109360000093EE
:1072900060002DD083CFB4CE8091C00087FFFCCF9B
:1072A0008091C00084FD01C0A8958091C60008951A
:1072B0009091C00095FFFCCF8093C6000895CF93B6
:1072C000DF93EC018991882311F0F2DFFBCFDF918E
:1072D000CF91089582E08093C00088E18093C1003F
:1072E00086E08093C20080E18093C4000895D4DFDB
:1072F00084E1DECFCF93C82FCFDFC150E9F7CF9124
:10730000F6CF80918400909185008A309D43B8F03B
:107310008091BA029091BB02A091BC02B091BD02D3
:107320000196A11DB11D8093BA029093BB02A09358
:10733000BC02B093BD02109285001092840060914F
:10734000BA027091BB028091BC029091BD02089577
:10735000E0E6F0E088E180831082EE27FF270994C1
:107360004F925F926F927F928F929F92AF92BF9255
:10737000CF92DF92EF92FF920F931F93CF93DF9301
:10738000CDB7DEB7A097DEBFCDBF5C014B01690171
:107390007A018E010F5F1F4F80E2F80111928A95EA
:1073A000E9F7AFDF2B013C01C50189DFB12C8091EA
:1073B000C00087FF1EC08091C00084FD01C0A89559
:1073C0002091C6008B2D90E0F801E80FF91F208373
:1073D0000196F82FFF71BF2EB401C801C6D1892BC9
:1073E00011F081E014C069E571E0C801BED1892BBC
:1073F00069F487DFDC01CB0184199509A609B70977
:107400008C159D05AE05BF0590F2EBCF80E0A096F0
:10741000DEBFCDBFDF91CF911F910F91FF90EF9015
:10742000DF90CF90BF90AF909F908F907F906F90A4
:107430005F904F9008952F923F924F925F926F927C
:107440007F928F929F92AF92BF92CF92DF92EF92F4
:10745000FF920F931F93CF93DF93CDB7DEB7CC5A34
:10746000D109DEBFCDBF809181008560809381000E
:10747000109285001092840010E000E89E012F5FBA
:107480003F4F49011E0131E8230E311C7E0181EA84
:10749000E80EF11C44244394512C193009F436C1F0
:1074A000A895143009F477C058F4113009F43DC0A0
:1074B00098F0123009F447C0133009F451C0EDCFF1
:1074C000163009F475C008F459C0173009F483C0A8
:1074D000183009F495C0E1CF8AEF93E030D16C0108
:1074E00089EF93E02CD15C0188EF93E028D19201E1
:1074F00001C0220FAA94EAF7F6019291922B908391
:10750000F6019081882311F0292B03C020952923AF
:10751000F601208322E030E040E050E069EB71E0CA
:1075200089E491E01DDF11E0BBCF22E030E040E0D4
:1075300050E06FE571E08EE391E012DF882309F4FB
:1075400055C012E053C022E030E040E050E069EB6B
:1075500071E087E391E004DF8823A9F115E033C0EF
:1075600022E030E040E050E069EB71E08EE291E033
:10757000F7DE882309F43AC015E038C022E030E095
:1075800040E050E06CE671E083E291E0E9DE8823C0
:10759000D1F014E018C022E030E040E050E067E7AE
:1075A00071E087E191E0DCDE882301F116E01EC086
:1075B00022E030E040E050E069EB71E08BE091E0E8
:1075C000CFDE811118E08FEF93EDE0E38150904022
:1075D000E040E1F712C022E030E040E050E061E836
:1075E00071E080E091E0BCDE811118E0FFEF23ED57
:1075F00030E3F15020403040E1F700C000004DCFB3
:10760000F401202F11922A95E9F7F10120E211925D
:107610002A95E9F7F7012CE011922A95E9F787EF0F
:1076200093E08DD03C0186EF93E089D06C0185EF2B
:1076300093E085D05C0184EF93E081D099279F93FC
:107640008F93BB24BF92AF92DD24DF92CF92772439
:107650007F926F928EE891E09F938F933F922F924B
:107660009ED083EF93E06BD06C0182EF93E067D004
:10767000982F88278C299F938F9327E931E03F9398
:107680002F93FF92EF928BD0FF92EF923F922F9227
:10769000EAE9F1E0FF93EF939F928F9280D025E08B
:1076A00030E040E050E06EEA71E0C40159DEDEBF38
:1076B000CDBF882311F081E02BC08AEF93E03FD04B
:1076C0006C0189EF93E03BD05C0188EF93E037D009
:1076D000920101C0220FAA94EAF7F6019291922B2F
:1076E0009083F6019081811102C0292B03C020955F
:1076F0002923F6012083FFEF23ED30E3F1502040F2
:107700003040E1F700C0000010E0CACEA89580E04C
:10771000C455DF4FDEBFCDBFDF91CF911F910F91D9
:10772000FF90EF90DF90CF90BF90AF909F908F90A1
:107730007F906F905F904F903F902F900895F999B0
:10774000FECF92BD81BDF89A992780B50895262F66
:10775000F999FECF1FBA92BD81BD20BD0FB6F89436
:10776000FA9AF99A0FBE01960895FB01519155239B
:10777000A9F0BF01DC014D9145174111E1F759F422
:10778000CD010190002049F04D9140154111C9F300
:10779000FB014111EFCF81E090E001970895AEE049
:1077A000B0E0E4EDFBE3AAC20D891E8986E08C837C
:1077B0001A8309838FEF9FE79E838D83AE01475E17
:1077C0005F4F6F89788DCE01019608D0EF81F885E3
:1077D000E00FF11F10822E96E4E0ACC2ABE0B0E007
:1077E000E3EFFBE37DC26C017B018A01FC011782A0
:1077F0001682838181FFBFC1CE0101963C01F60153
:107800009381F70193FD859193FF81917F018823F7
:1078100009F4ADC1853239F493FD859193FF8191CF
:107820007F01853221F4B60190E0C0D1E8CF912CE0
:10783000212C312CFFE1F315D8F08B3279F038F49C
:10784000803279F08332A1F4232D20611DC08D3266
:1078500061F0803369F4232D216016C0832D82608E
:10786000382EE32DE4603E2E2AC0F32DF8601DC0B3
:1078700037FC2DC020ED280F2A3040F08E32B9F4AD
:1078800036FC75C1232D2064322E19C036FE06C089
:107890008AE0989E200D1124922E11C0EAE02E9EBF
:1078A000200D1124222EF32DF0623F2E08C08C36BD
:1078B00021F4832D8068382E02C0883641F4F70108
:1078C00093FD859193FF81917F018111B3CF982F13
:1078D0009F7D9554933028F40C5F1F4F9FE399834D
:1078E0000DC0833631F0833771F0833509F055C010
:1078F00020C0F801808189830E5F1F4F8824839404
:10790000912C530112C02801F2E04F0E511CF801D6
:10791000A080B18036FE03C0692D70E002C06FEF19
:107920007FEFC50138D14C018201F32DFF773F2E47
:1079300015C0280122E0420E511CF801A080B18040
:1079400036FE03C0692D70E002C06FEF7FEFC50106
:1079500017D14C01F32DF0683F2E820133FC19C082
:10796000822D90E088169906A0F4B60180E290E09E
:107970001DD12A94F5CFF50137FC859137FE819111
:107980005F01B60190E012D121102A9421E0821A01
:1079900091088114910479F7E1C0843611F0893699
:1079A00039F5F80137FE07C06081718182819381CA
:1079B0000C5F1F4F08C060817181072E000C880B7F
:1079C000990B0E5F1F4FF32DFF763F2E97FF09C0D7
:1079D00090958095709561957F4F8F4F9F4FF06880
:1079E0003F2E2AE030E0A3011DD1882E861844C026
:1079F000853731F4232D2F7EB22E2AE030E025C0CA
:107A0000932D997FB92E8F36C1F018F4883579F00F
:107A1000AEC0803719F0883721F0A9C0E92FE061A6
:107A2000BE2EB4FE0DC0FB2DF460BF2E09C034FE87
:107A30000AC0292F2660B22E06C028E030E005C01B
:107A400020E130E002C020E132E0F801B7FE07C0DB
:107A500060817181828193810C5F1F4F06C06081BC
:107A6000718180E090E00E5F1F4FA301DBD0882E74
:107A70008618FB2DFF773F2E36FE0DC0232D2E7F5F
:107A8000A22E891458F434FE0BC032FC09C0832D99
:107A90008E7EA82E05C0B82CA32C03C0B82C01C024
:107AA000B92CA4FE0FC0FE01E80DF11D80818033CA
:107AB00021F49A2D997EA92E09C0A2FE06C0B39486
:107AC000B39404C08A2D867809F0B394A3FC10C047
:107AD000A0FE06C0B21480F4280C922C9B180DC096
:107AE000B21458F4B60180E290E060D0B394F8CFBD
:107AF000B21418F42B1802C0982C212CA4FE0FC02D
:107B0000B60180E390E052D0A2FE16C0A1FC03C0F3
:107B100088E790E002C088E590E0B6010CC08A2DAD
:107B2000867851F0A1FE02C08BE201C080E2A7FC82
:107B30008DE2B60190E03AD0891430F4B60180E3CA
:107B400090E034D09A94F8CF8A94F301E80DF11DB7
:107B50008081B60190E02AD08110F6CF222009F46E
:107B60004ECEB60180E290E021D02A94F7CFF60104
:107B70008681978102C08FEF9FEF2B96E2E1CCC008
:107B8000FC010590615070400110D8F780959095E8
:107B90008E0F9F1F0895FC016150704001900110ED
:107BA000D8F7809590958E0F9F1F08950F931F9380
:107BB000CF93DF93FB01238121FD03C08FEF9FEF64
:107BC0002CC022FF16C0468157812481358142177F
:107BD000530744F4A081B1819D012F5F3F4F318352
:107BE00020838C93268137812F5F3F4F37832683F5
:107BF00014C08B01EC01FB010084F185E02D099597
:107C0000892BE1F6D80116968D919C9117970196D4
:107C100017969C938E931697CE01DF91CF911F916B
:107C20000F910895FA01AA27283051F1203181F1EE
:107C3000E8946F936E7F6E5F7F4F8F4F9F4FAF4F74
:107C4000B1E03ED0B4E03CD0670F781F891F9A1F87
:107C5000A11D680F791F8A1F911DA11D6A0F711D3B
:107C6000811D911DA11D20D009F468943F912AE047
:107C7000269F11243019305D3193DEF6CF0108952F
:107C8000462F4770405D4193B3E00FD0C9F7F6CF60
:107C9000462F4F70405D4A3318F0495D31FD405228
:107CA000419302D0A9F7EACFB4E0A69597958795BE
:107CB00077956795BA95C9F700976105710508959D
:107CC0009B01AC010A2E0694579547953795279549
:107CD000BA95C9F7620F731F841F951FA01D0895E1
:107CE0002F923F924F925F926F927F928F929F92CC
:107CF000AF92BF92CF92DF92EF92FF920F931F93BA
:107D0000CF93DF93CDB7DEB7CA1BDB0B0FB6F8946A
:107D1000DEBF0FBECDBF09942A88398848885F84AA
:107D20006E847D848C849B84AA84B984C884DF801B
:107D3000EE80FD800C811B81AA81B981CE0FD11DFF
:107D40000FB6F894DEBF0FBECDBFED010895F894D5
:027D5000FFCF63
:107D520041542B584949433F0D0A0041542B58497D
:107D620049433D310D0A0041542B43474154543F8E
:107D72000D0A0041542B435245473F0D0A0041541E
:107D82002B4353510D0A00415445300D0A00415412
:107D92002B4350494E3F0D0A0041542B544350434C
:107DA2004C4F53453D300D0A004552524F52002B65
:107DB2004350494E3A205245414459002B435245C3
:107DC200473A20302C31002B43474154543A20315A
:107DD200002B584949433A20202020312C002564A9
:107DE2002E25642E25642E25640041542B544350C5
:107DF2005452414E533D25732C25730D0A002B54CA
:107E020043505452414E533A204F4B000D0A2D2DF0
:107E120020426F6F746C6F6164657220537461727B
:107E22007473202D2D0D0A005761746368646F67A7
:107E32002052657365740D0A004F544120536967DF
:107E42006E616C20466F756E640D0A004F70746926
:107E5200626F6F7420417474656D70746564204242
:107E620065666F72650D0A005374617274696E679C
:107E7200204170706C69636174696F6E0D0A004114
:107E82007474656D7074696E67204F707469626F87
:107E92006F740D0A0047534D204C6F6F700D0A002E
:107EA2004F5441205369676E616C204E6F742046B7
:107EB2006F756E640D0A0042726F776E204F757493
:107EC2002052657365740D0A0045787465726E619F
:107ED2006C2052657365740D0A0053746172746983
:107EE2006E67204F54410D0A00506F776572205221
:107EF200657365740D0A00496E76616C696420468B
:0A7F020069726D776172650D0A0067
:040000030000700089
:00000001FF
